:100000000C942A000C943F000C943F000C943F0089
:100010000C943F000C943F000C943F000C943F0064
:100020000C943F000C943F000C943F000C943F0054
:100030000C943F000C943F000C943F000C943F0044
:100040000C943F000C943F000C943F000C943F0034
:100050000C943F0011241FBECFE5D8E0DEBFCDBF1A
:1000600010E0A0E6B0E0EAECF0E102C005900D92ED
:10007000A639B107D9F70E94A6020C9463080C9424
:10008000000081B3806181BB81B3806281BB81B399
:10009000806481BB81B3806881BB81B38E7F81BB6B
:1000A00081B38D7F81BB81B38B7F81BB81B3877F20
:1000B00081BB8FEF82BB0895CF92DF92EF92FF92C8
:1000C000C12CD12C7601D4C022B3FA01EE0FFF1F50
:1000D000EE0FFF1FE059FF4F81E090E0008002C06B
:1000E000880F991F0A94E2F7822B82BB4F5F5F4F04
:1000F0006F4F7F4F03C040E050E0BA0144305105DC
:100100006105710508F322B3F601EE0FFF1FEE0F34
:10011000FF1FE059FF4F81E090E0008002C0880F90
:10012000991F0A94E2F78095822382BB40E050E059
:10013000BA0193C080B3FA01EE0FFF1FEE0FFF1F4D
:10014000E05AFF4F3081232F90E002C095958795AC
:100150003A95E2F780FD7DC080B390E0022E02C0A8
:10016000959587950A94E2F780FFF6CF81E0C8164F
:10017000D104E104F10441F170F082E0C816D10429
:10018000E104F104C9F183E0C816D104E104F104EB
:1001900009F44AC05EC0411551056105710509F4B5
:1001A00070C0413051056105710509F46CC04230E1
:1001B00051056105710509F468C0433051056105B9
:1001C000710509F046C063C041155105610571050F
:1001D00009F45FC0413051056105710509F45BC048
:1001E000423051056105710509F457C0433051058E
:1001F0006105710571F553C0411551056105710522
:1002000009F44FC0413051056105710509F44BC037
:10021000423051056105710509F447C0433051056D
:1002200061057105B1F443C04115510561057105C2
:1002300009F43FC04130510561057105E1F14230DB
:10024000510561057105C9F143305105610571051D
:10025000B1F14F5F5F4F6F4F7F4F443051056105E4
:10026000710508F467CF8FEFC81AD80AE80AF80AB0
:1002700084E0C816D104E104F10408F43CCF8EE414
:100280001FC087E31DC084E31BC081E319C083E462
:1002900017C088E315C085E313C082E311C080E373
:1002A0000FC089E30DC086E30BC083E309C08DE373
:1002B00007C08FE205C08AE203C08DE201C08BE275
:1002C000FF90EF90DF90CF90089588B38E7F88BB2A
:1002D00083ED90E30197F1F700C0000088B38160DF
:1002E00088BB08958AB31ABA88B3826088BB88B382
:1002F0008B7F88BB0E9465018FEF8ABB88B38D7F9F
:1003000088BB0895CF93C82F0E947201CBBB88B3DE
:100310008D7F88BB88B38B7F88BB89EF90E0019786
:10032000F1F700C000000E946501CF910895CF93BE
:10033000C82F0E947201CBBB88B38D7F88BB88B366
:10034000846088BB89EF90E00197F1F700C000005E
:100350000E946501CF91089581E00E948201089575
:1003600087E893E10197F1F700C000000E94720155
:1003700087B3816087BB87B3826087BB87B38460A4
:1003800087BB88B38E7F88BB88B38B7F88BB88B3DD
:100390008D7F88BB8FEF8ABB85EA9EE00197F1F7DE
:1003A00000C000000E94AC0188E30E94820186E048
:1003B0000E94820180E80E9482018FE00E948201F7
:1003C0000895CF93DF93C82FD62F813031F4603159
:1003D00020F480E8860F0E948201C23031F4D031CF
:1003E00020F480EC8D0F0E948201DF91CF9108955F
:1003F000CF92DF92EF92FF92CF93DF93EC01C12C6B
:10040000D12C760122C021960E9497018FEFC81A45
:10041000D80AE80AF80A80E1C816D104E104F10418
:1004200029F460E082E00E94E1010FC080E2C8167A
:10043000D104E104F10449F40E94AC0160E081E0E0
:100440000E94E101C12CD12C760188818111DBCF82
:10045000DF91CF91FF90EF90DF90CF9008958F9232
:100460009F92AF92BF92CF92DF92EF92FF920F9343
:100470001F93CF93DF93CDB7DEB760970FB6F89495
:10048000DEBF0FBECDBF6B017C0120E030E0A901D3
:100490000E94FE0388231CF403E810E002C004E875
:1004A00010E020E030E0A901C701B6010E94FE0380
:1004B000882324F4F7FAF094F7F8F094C701B60112
:1004C0000E940304B62EA72E982E892E0E94320475
:1004D0009B01AC01C701B6010E94910320E030E40A
:1004E0004CE156E40E94E4040E9403049F938F931E
:1004F0007F936F938F929F92AF92BF921F930F93B0
:1005000085E890E09F938F938E010F5F1F4F1F939D
:100510000F930E947905C8010E94F8010FB6F89464
:10052000DEBF0FBECDBF60960FB6F894DEBF0FBE24
:10053000CDBFDF91CF911F910F91FF90EF90DF9092
:10054000CF90BF90AF909F908F9008950E94B00180
:100550000E94410000E010E00E945C00C82F80ED86
:100560008C0F8A3008F04DC08C2F0E9497018C2F81
:1005700090E0C0970F5F1F4F03301105E9F038F48A
:1005800001301105E9F10230110541F03AC00430A3
:100590001105E1F00530110531F133C09701220F4B
:1005A000331FEE0CFF1CEE0CFF1CEE0CFF1CE20ECA
:1005B000F31EE80EF91E25C044E64E9D90014F9DA6
:1005C000300D11247901E80EF91E1BC048EE53E0EE
:1005D000E49E9001E59E300DF49E300D11247901CA
:1005E000E80EF91E0EC040E157E2E49E9001E59E40
:1005F000300DF49E300D11247901E80EF91E01C072
:100600007C01CD32F9F028F4CA3261F0CB3291F09E
:10061000A3CFCD3339F1C33409F47EC0CF3209F012
:100620009BCF18C08C2F0E949701DC2F670100E040
:1006300010E092CF8C2F0E949701DC2F670100E021
:1006400010E08ACF8C2F0E949701DC2F670100E019
:1006500010E082CF8C2F0E949701DC2F670100E011
:1006600010E07ACF8C2F0E949701DA3281F4EC9C53
:10067000B001ED9C700DFC9C700D1124072E000C38
:10068000880B990B0E9434044B015C012AC0DB32B9
:1006900061F4B7016C0D7D1D072E000C880B990BC2
:1006A0000E9434044B015C011CC0DD3261F4B601D0
:1006B0006E197F09072E000C880B990B0E943404D9
:1006C0004B015C010EC0DF3261F4C601B7010E942C
:1006D0005105072E000C880B990B0E9434044B0126
:1006E0005C01DF3271F4E114F10459F460E082E05E
:1006F0000E94E1018FE890E00E94F80100E010E024
:100700002BCF60E082E00E94E101C501B4010E94AC
:100710002F0200E010E020CF0E94AC0100E010E0CA
:100720001BCF5058BB27AA270E94A9030C94AA04E8
:100730000E949C0438F00E94A30420F039F49F3FEB
:1007400019F426F40C9499040EF4E095E7FB0C944C
:100750009304E92F0E94BB0458F3BA17620773078A
:100760008407950720F079F4A6F50C94DD040EF4C7
:10077000E0950B2EBA2FA02D0B01B90190010C01B1
:10078000CA01A0011124FF27591B99F0593F50F4C9
:10079000503E68F11A16F040A22F232F342F442721
:1007A000585FF3CF469537952795A795F040539519
:1007B000C9F77EF41F16BA0B620B730B840BBAF0E9
:1007C0009150A1F0FF0FBB1F661F771F881FC2F754
:1007D0000EC0BA0F621F731F841F48F48795779568
:1007E0006795B795F7959E3F08F0B0CF9395880F22
:1007F00008F09927EE0F9795879508950E946F044A
:1008000008F481E008950E94C30488F09F5798F08F
:10081000B92F9927B751B0F0E1F0660F771F881F05
:10082000991F1AF0BA95C9F714C0B13091F00E941F
:10083000DD04B1E008950C94DD04672F782F88273C
:10084000B85F39F0B93FCCF3869577956795B39546
:10085000D9F73EF490958095709561957F4F8F4FB5
:100860009F4F0895E89409C097FB3EF490958095BA
:10087000709561957F4F8F4F9F4F9923A9F0F92F66
:1008800096E9BB279395F695879577956795B795E4
:10089000F111F8CFFAF4BB0F11F460FF1BC06F5FCA
:1008A0007F4F8F4F9F4F16C0882311F096E911C0DC
:1008B000772321F09EE8872F762F05C0662371F0FD
:1008C00096E8862F70E060E02AF09A95660F771F11
:1008D000881FDAF7880F9695879597F90895990FED
:1008E0000008550FAA0BE0E8FEEF16161706E807FA
:1008F000F907C0F012161306E407F50798F0621B1B
:10090000730B840B950B39F40A2661F0232B242BEF
:10091000252B21F408950A2609F4A140A6958FEF0E
:10092000811D811D089597F99F6780E870E060E060
:1009300008959FEF80EC089500240A941616170678
:1009400018060906089500240A94121613061406C0
:1009500005060895092E0394000C11F4882352F023
:10096000BB0F40F4BF2B11F460FF04C06F5F7F4FDB
:100970008F4F9F4F089557FD9058440F551F59F0C2
:100980005F3F71F04795880F97FB991F61F09F3F7C
:1009900079F087950895121613061406551FF2CFA5
:1009A0004695F1DF08C0161617061806991FF1CFF5
:1009B00086957105610508940895E894BB2766271C
:1009C0007727CB0197F908950E94F7040C94AA04A5
:1009D0000E949C0438F00E94A30420F0952311F09B
:1009E0000C9493040C94990411240C94DE040E943A
:1009F000BB0470F3959FC1F3950F50E0551F629FA4
:100A0000F001729FBB27F00DB11D639FAA27F00D67
:100A1000B11DAA1F649F6627B00DA11D661F829F8E
:100A20002227B00DA11D621F739FB00DA11D621F73
:100A3000839FA00D611D221F749F3327A00D611D90
:100A4000231F849F600D211D822F762F6A2F112472
:100A50009F5750409AF0F1F088234AF0EE0FFF1FA5
:100A6000BB1F661F771F881F91505040A9F79E3FFC
:100A7000510580F00C9493040C94DE045F3FE4F382
:100A8000983ED4F3869577956795B795F795E79552
:100A90009F5FC1F7FE2B880F911D9695879597F95B
:100AA000089597FB072E16F4009407D077FD09D020
:100AB0000E94650507FC05D03EF4909581959F4FF7
:100AC0000895709561957F4F0895AA1BBB1B51E156
:100AD00007C0AA1FBB1FA617B70710F0A61BB70BAE
:100AE000881F991F5A95A9F780959095BC01CD0153
:100AF0000895AEE0B0E0EFE7F5E00C943A080D8918
:100B00001E8986E08C831A8309838FEF9FE79E837B
:100B10008D83AE01475E5F4F6F89788DCE01019660
:100B20000E949B05EF81F885E00FF11F10822E9641
:100B3000E4E00C945608ABE0B0E0E1EAF5E00C9498
:100B40002C086C017B018A01FC01178216828381CB
:100B500081FFCCC1CE0101963C01F6019381F701E2
:100B600093FD859193FF81917F01882309F4BAC198
:100B7000853239F493FD859193FF81917F01853210
:100B800029F4B60190E00E949207E7CF912C212C26
:100B9000312CFFE1F315D8F08B3279F038F4803244
:100BA00079F08332A1F4232D20611DC08D3261F0D4
:100BB000803369F4232D216016C0832D8260382E86
:100BC000E32DE4603E2E2AC0F32DF8601DC037FCF3
:100BD0002DC020ED280F2A3040F08E32B9F436FCBB
:100BE00081C1232D2064322E19C036FE06C08AE052
:100BF000989E200D1124922E11C0EAE02E9E200D09
:100C00001124222EF32DF0623F2E08C08C3621F4E1
:100C1000832D8068382E02C0883641F4F70193FD99
:100C2000859193FF81917F018111B3CF982F9F7D93
:100C30009554933028F40C5F1F4F9FE399830DC0A8
:100C4000833631F0833771F0833509F059C021C004
:100C5000F801808189830E5F1F4F88248394912C33
:100C6000530113C02801F2E04F0E511CF801A0807F
:100C7000B18036FE03C0692D70E002C06FEF7FEFD8
:100C8000C5010E9487074C018201F32DFF773F2E9B
:100C900016C0280122E0420E511CF801A080B1804C
:100CA00036FE03C0692D70E002C06FEF7FEFC50113
:100CB0000E947C074C01F32DF0683F2E820133FC2B
:100CC0001BC0822D90E088169906B0F4B60180E230
:100CD00090E00E9492072A94F4CFF50137FC8591A9
:100CE00037FE81915F01B60190E00E9492072110CA
:100CF0002A9421E0821A91088114910471F7E8C0C6
:100D0000843611F0893641F5F80137FE07C060815D
:100D10007181828193810C5F1F4F08C06081718156
:100D2000072E000C880B990B0E5F1F4FF32DFF76DB
:100D30003F2E97FF09C090958095709561957F4FE4
:100D40008F4F9F4FF0683F2E2AE030E0A3010E94B2
:100D5000CE07882E861845C0853731F4232D2F7E87
:100D6000B22E2AE030E025C0932D997FB92E8F3620
:100D7000C1F018F4883579F0B5C0803719F088379C
:100D800021F0B0C0E92FE061BE2EB4FE0DC0FB2DF6
:100D9000F460BF2E09C034FE0AC0292F2660B22E8F
:100DA00006C028E030E005C020E130E002C020E1CC
:100DB00032E0F801B7FE07C06081718182819381C2
:100DC0000C5F1F4F06C06081718180E090E00E5F74
:100DD0001F4FA3010E94CE07882E8618FB2DFF7798
:100DE0003F2E36FE0DC0232D2E7FA22E891458F4DF
:100DF00034FE0BC032FC09C0832D8E7EA82E05C0A8
:100E0000B82CA32C03C0B82C01C0B92CA4FE0FC071
:100E1000FE01E80DF11D8081803321F49A2D997E29
:100E2000A92E09C0A2FE06C0B394B39404C08A2DB3
:100E3000867809F0B394A3FC11C0A0FE06C0B214DA
:100E400088F4280C922C9B180EC0B21460F4B601E2
:100E500080E290E00E949207B394F7CFB21418F4A6
:100E60002B1802C0982C212CA4FE10C0B60180E3E0
:100E700090E00E949207A2FE17C0A1FC03C088E781
:100E800090E002C088E590E0B6010CC08A2D86781B
:100E900059F0A1FE02C08BE201C080E2A7FC8DE206
:100EA000B60190E00E949207891438F4B60180E3FD
:100EB00090E00E9492079A94F7CF8A94F301E80D8C
:100EC000F11D8081B60190E00E9492078110F5CF5C
:100ED000222009F442CEB60180E290E00E949207FF
:100EE0002A94F6CFF6018681978102C08FEF9FEF9B
:100EF0002B96E2E10C944808FC010590615070408B
:100F00000110D8F7809590958E0F9F1F0895FC01D2
:100F10006150704001900110D8F7809590958E0F28
:100F20009F1F08950F931F93CF93DF93FB0123819E
:100F300021FD03C08FEF9FEF2CC022FF16C046811A
:100F40005781248135814217530744F4A081B18130
:100F50009D012F5F3F4F318320838C932681378102
:100F60002F5F3F4F3783268314C08B01EC01FB01B9
:100F70000084F185E02D0995892BE1F6D8011696BC
:100F80008D919C911797019617969C938E93169727
:100F9000CE01DF91CF911F910F910895FA01AA27F9
:100FA000283051F1203181F1E8946F936E7F6E5FAC
:100FB0007F4F8F4F9F4FAF4FB1E03ED0B4E03CD05A
:100FC000670F781F891F9A1FA11D680F791F8A1F3D
:100FD000911DA11D6A0F711D811D911DA11D20D0A4
:100FE00009F468943F912AE0269F11243019305D5E
:100FF0003193DEF6CF010895462F4770405D41934F
:10100000B3E00FD0C9F7F6CF462F4F70405D4A339B
:1010100018F0495D31FD4052419302D0A9F7EACF63
:10102000B4E0A6959795879577956795BA95C9F792
:1010300000976105710508959B01AC010A2E069485
:101040005795479537952795BA95C9F7620F731F3E
:10105000841F951FA01D08952F923F924F925F927B
:101060006F927F928F929F92AF92BF92CF92DF92B8
:10107000EF92FF920F931F93CF93DF93CDB7DEB71D
:10108000CA1BDB0B0FB6F894DEBF0FBECDBF0994B1
:101090002A88398848885F846E847D848C849B8408
:1010A000AA84B984C884DF80EE80FD800C811B8116
:1010B000AA81B981CE0FD11D0FB6F894DEBF0FBE45
:0A10C000CDBFED010895F894FFCFB5
:1010CA000000000001000000020000000300000010
:1010DA0004000000050000000600000007000000F0
:1010EA002564002D00257325642E253034640045BF
:0610FA0052524F520000AB
:00000001FF
