:100000000C942E000C94BC000C94E0000C940401A1
:100010000C9433010C9433010C9433010C94330190
:100020000C9433010C9433010C9433010C94330180
:100030000C9433010C9433010C9433010C94330170
:100040000C9433010C9433010C9433010C94330160
:100050000C9433010060006A0002740011241FBE7A
:10006000CFE5D8E0DEBFCDBFE4E5F0E040E017C06B
:10007000B591A59135912591059107FD0CC09591FC
:100080008591EF01F92FE82F05900D92A217B30784
:10009000D9F7FE0104C01D92A217B307E1F7EB35B3
:1000A000F40731F70E9458000C942801F894FFCF10
:1000B000E0916000F0916100808180628083E09136
:1000C0006000F0916100808180648083E091600035
:1000D000F0916100808180688083E0916800F091F8
:1000E0006900808181608083E0916800F0916900FF
:1000F00080818D7F8083E0916800F091690080812C
:1001000084608083E0916800F0916900808188605C
:100110008083E0916600F091670080818F7B80830F
:10012000E0916400F0916500808180628083E091BD
:100130006400F0916500808180648083E0916400B8
:10014000F09165008081806880837894E0916200FE
:10015000F091630080818F7D8083E0916200F09157
:10016000630080818F7B8083E0916200F091630067
:0801700080818F778083EACFC4
:100178001F920F920FB60F9211242F938F939F9374
:10018800EF93FF93E0916200F091630080818062B9
:1001980080832FE38DE093E0215080409040E1F789
:1001A80000C00000FF91EF919F918F912F910F90C8
:0801B8000FBE0F901F90189577
:1001C0001F920F920FB60F9211242F938F939F932C
:1001D000EF93FF93E0916200F0916300808180646F
:1001E00080832FE38DE093E0215080409040E1F741
:1001F00000C00000FF91EF919F918F912F910F9080
:080200000FBE0F901F9018952E
:100208001F920F920FB60F9211242F938F939F93E3
:10021800EF93FF93E0916200F09163008081806822
:1002280080832FE38DE093E0215080409040E1F7F8
:1002380000C00000FF91EF919F918F912F910F9037
:080248000FBE0F901F901895E6
:10025000EC010E9438010E943701CE010E94390151
:06026000CE010E943501F1
:040266000C940000F4
:04026A000E94560098
:02026E000895F1
:020270000895EF
:020272000895ED
:02027400310057
:02027600320054
:020278005B0029
:02027A0054002E
:02027C0055002B
:00000001FF
