S00D0000536C6176652E737265631C
S11300000C942A000C9434000C9434000C943400A6
S11300100C9434000C9434000C9434000C9434008C
S11300200C9434000C9434000C9434000C9434007C
S11300300C9434000C9434000C9434000C9434006C
S11300400C9434000C9434000C9434000C9434005C
S11300500C94340011241FBECFE5D8E0DEBFCDBF21
S11300600E9445000C945A000C94000087B38064ED
S113007087BB87B38F7487BB8DB180648DB90895B6
S11300808FB9779BFECF8FB108958FEF8ABB0E9403
S113009036008FEF2FE33DE093E021503040904055
S11300A0E1F700C00000CFEFC80F0E9440008BBBF7
S10B00B08C2FF0CFF894FFCF70
S9030000FC
