S01400004170706C69636174696F6E312E737265636B
S11300000C942A000C9434000C9434000C943400A6
S11300100C9434000C9434000C9434000C9434008C
S11300200C9434000C9434000C9434000C9434007C
S11300300C9434000C9434000C9434000C9434006C
S11300400C9434000C9434000C9434000C9434005C
S11300500C94340011241FBECFE5D8E0DEBFCDBF21
S11300600E944F000C94E8000C9400008AB3816055
S11300708ABB8AB382608ABB8AB384608ABB8AB330
S113008088608ABB8AB380618ABB8AB380628ABB78
S11300908AB380648ABB8AB380688ABB08950E944D
S11300A036008BB381608BBB87EA91E60197F1F749
S11300B000C000008BB382608BBB87EA91E6019796
S11300C0F1F700C000008BB384608BBB87EA91E634
S11300D00197F1F700C000008BB388608BBB87EAFF
S11300E091E60197F1F700C000008BB380618BBBF0
S11300F087EA91E60197F1F700C000008BB38062B4
S11301008BBB87EA91E60197F1F700C000008BB33F
S113011080648BBB87EA91E60197F1F700C0000089
S11301208BB380688BBB9FE926E881E09150204027
S11301308040E1F700C000008BB38F778BBB87EA68
S113014091E60197F1F700C000008BB38F7B8BBB66
S113015087EA91E60197F1F700C000008BB38F7D29
S11301608BBB87EA91E60197F1F700C000008BB3DF
S11301708F7E8BBB87EA91E60197F1F700C0000000
S11301808BB3877F8BBB87EA91E60197F1F700C0B9
S113019000008BB38B7F8BBB87EA91E60197F1F765
S11301A000C000008BB38D7F8BBB87EA91E601977B
S11301B0F1F700C000008BB38E7F8BBB9FE926E86C
S11301C081E0915020408040E1F700C0000069CFF9
S10701D0F894FFCFCD
S9030000FC
