S017000041544D454733325F447269766572732E73726563FC
S11300000C942A000C943F000C943F000C943F0085
S11300100C943F000C943F000C943F000C943F0060
S11300200C943F000C943F000C943F000C943F0050
S11300300C943F000C943F000C943F000C943F0040
S11300400C943F000C943F000C943F000C943F0030
S11300500C943F0011241FBECFE5D8E0DEBFCDBF16
S113006010E0A0E6B0E0ECE4F2E002C005900D92EE
S1130070A036B107D9F70E94F6000C9424010C9421
S1130080000088B38E7F88BB83ED90E30197F1F77E
S113009000C0000088B3816088BB0895CF93C82F47
S11300A08BB38F709C2F907F892B8BBB88B384601C
S11300B088BB88B38D7F88BB0E9441002BB330E19D
S11300C0C39FC0011124922F9F70892B8BBB88B3CF
S11300D0846088BB88B38D7F88BB0E944100CF9128
S11300E008958AB38F708ABB88B3826088BB88B353
S11300F08B7F88BB0E9441008FEF8ABB88B38D7FC2
S113010088BB0895CF93C82F0E9471008BB38F7062
S11301109C2F907F892B8BBB88B38D7F88BB88B342
S11301208B7F88BB0E9441002BB330E1C39FC00189
S11301301124922F9F70892B8BBB88B38D7F88BB32
S113014088B38B7F88BB0E944100CF91089581E0E2
S11301500E948200089587E893E10197F1F700C0B7
S113016000000E94710087B3816087BB87B38260FF
S113017087BB87B3846087BB88B38E7F88BB88B313
S11301808B7F88BB88B38D7F88BB8FEF8ABB85EA62
S11301909EE00197F1F700C000000E94A70082E0F2
S11301A00E94820088E20E94820086E00E9482000F
S11301B080E80E9482008FE00E9482000895CF931D
S11301C0DF93C82FD62F811106C0603120F480E858
S11301D0860F0E948200C13031F4D03120F480ECCB
S11301E08D0F0E948200DF91CF9108950E94AB0091
S11301F00E94100160E080E00E94DF0081E40E9420
S11302004E0081E40E941C0182E60E941C0160E011
S113021081E00E94DF000E9420010E944E00F7CF7F
S113022083E389B98BB18D7F8BB98AB188608AB930
S11302308AB180618AB908955D9BFECF8CB9089517
S10F02405F9BFECF8CB10895F894FFCFB3
S9030000FC
