:100000000C942A000C94BD000C94E4000C940B0199
:100010000C9447000C9447000C9447000C94470044
:100020000C9447000C9447000C94DC010C940302E0
:100030000C9447000C9447000C9447000C94470024
:100040000C9447000C9447000C9447000C94470014
:100050000C94470011241FBECFE5D8E0DEBFCDBF12
:1000600010E0A0E6B0E0EEE7F4E002C005900D92EB
:10007000A036B107D9F720E0A0E6B0E001C01D929C
:10008000A037B207E1F70E944E000C943D020C9499
:10009000000089E390E00E9495000895CF93DF93DC
:1000A000CDB7DEB729970FB6F894DEBF0FBECDBF30
:1000B0008FEF8ABB88E4898382E08B8389E490E0B8
:1000C0009987888780E28A8380EF8D83CE010196AD
:1000D0000E94AC01FFCFFC01DB0111968C911197BE
:1000E000813079F018F08230B1F0089591818C91CF
:1000F00080958923818392818C9180958923828345
:10010000089591818C9180958923818392818C912E
:10011000892B8283089591818C91892B8183089505
:10012000FC012281622762830895CF93DF93EC0163
:100130008FEF898361E0CE010E94900062E0CE01E2
:100140000E94900064E0CE010E94900068E0CE0121
:100150000E94900060E1CE010E94900060E2CE011A
:100160000E94900060E4CE010E94900060E8CE0101
:100170000E949000DF91CF9108951F920F920FB6C9
:100180000F9211242F933F934F935F936F937F931D
:100190008F939F93AF93BF93EF93FF93E09164008E
:1001A000F09165000995FF91EF91BF91AF919F91FB
:1001B0008F917F916F915F914F913F912F910F9010
:1001C0000FBE0F901F9018951F920F920FB60F92AF
:1001D00011242F933F934F935F936F937F938F934C
:1001E0009F93AF93BF93EF93FF93E0916600F091DD
:1001F00067000995FF91EF91BF91AF919F918F910A
:100200007F916F915F914F913F912F910F900FBE12
:100210000F901F9018951F920F920FB60F921124F6
:100220002F933F934F935F936F937F938F939F93FE
:10023000AF93BF93EF93FF93E0916800F091690053
:100240000995FF91EF91BF91AF919F918F917F9110
:100250006F915F914F913F912F910F900FBE0F9033
:100260001F90189582BF08958CBF0895CF93DF9398
:10027000EC018981803161F018F4882331F013C0DA
:10028000803251F0803361F00EC083B783BF0BC062
:1002900083B7806183BF07C083B7806283BF03C019
:1002A00083B7806383BF8D818823A9F08FB780686F
:1002B0008FBF8F81988590936F0080936E0090938D
:1002C0006D0080936C0089B79D81923009F091E0B8
:1002D000892B89BF0CC08E81823021F408B601FEC3
:1002E000FDCF05C0813019F408B600FEFDCF8B812B
:1002F0000E9432018C810E943401DF91CF910895D8
:10030000FC019181903239F0903349F091110AC08B
:1003100083B783BF07C083B7806283BF03C083B73F
:10032000806383BF84810E9434010895FC01918120
:10033000903239F0903349F091110AC083B783BFEE
:1003400007C083B7806283BF03C083B7806383BF66
:1003500084810E9434010895CF93DF93EC0193B719
:100360008881892B83BF8981882359F0EAE6F0E0F0
:1003700082E0818388E08083BF0186E390E00E9471
:100380006B0093B78A81892B83BF8881882311F002
:10039000883021F4CE010E9436010BC0803421F454
:1003A000CE010E94800105C0883419F4CE010E945C
:1003B0009601DF91CF9108951F920F920FB60F9281
:1003C00011242F933F934F935F936F937F938F935A
:1003D0009F93AF93BF93EF93FF93E0916E00F091E3
:1003E0006F000995FF91EF91BF91AF919F918F9110
:1003F0007F916F915F914F913F912F910F900FBE21
:100400000F901F9018951F920F920FB60F92112404
:100410002F933F934F935F936F937F938F939F930C
:10042000AF93BF93EF93FF93809160009091610031
:10043000A0916200B09163000196A11DB11D80934F
:10044000600090936100A0936200B0936300E0911C
:100450006C00F0916D000995FF91EF91BF91AF9104
:100460009F918F917F916F915F914F913F912F91CC
:0E0470000F900FBE0F901F901895F894FFCFBD
:00000001FF
