S0110000375345472D4D5078382E7372656383
S11300000C942A000C9434000C9434000C943400A6
S11300100C9434000C9434000C9434000C9434008C
S11300200C9434000C9434000C9434000C9434007C
S11300300C9434000C9434000C9434000C9434006C
S11300400C9434000C9434000C9434000C9434005C
S11300500C94340011241FBECFE5D8E0DEBFCDBF21
S11300600E9461000C947B000C94000087B3806BA9
S113007087BB8DB180618DB98DB180648DB98DB12F
S113008081608DB9089598B39F7E98BB8FB9779B93
S1130090FECF6FB9779BFECF88B3806188BB08958C
S11300A06FEF89E00E9443006FEF8AE00E944300F3
S11300B067EF8BE00E94430061E08CE00E94430004
S11300C008950E9436000E94500060E0C1E007C01D
S11300D0D1E0D60F8C2F0E944300CF5F6D2FC93023
S11300E0B8F32FE38DE093E0215080409040E1F796
S10D00F000C00000EBCFF894FFCF2E
S9030000FC
