S01400004C6563747572655F4C6162322E737265639C
S11300000C942A000C9434000C9434000C943400A6
S11300100C9434000C9434000C9434000C9434008C
S11300200C9434000C9434000C9434000C9434007C
S11300300C9434000C9434000C9434000C9434006C
S11300400C9434000C9434000C9434000C9434005C
S11300500C94340011241FBECFE5D8E0DEBFCDBF21
S11300600E9436000C946A000C94000081B38061F5
S113007081BB81B3806281BB81B3806481BB81B366
S1130080806881BB47E050E060E070E01DC022B3AF
S113009081E090E0042E02C0880F991F0A94E2F7D1
S11300A0922F982B92BB2FE332E4EFE021503040A3
S11300B0E040E1F700C0000092B38095892382BB41
S11300C041505109610971094430510561057105B7
S10B00D0F0F6D8CFF894FFCF3D
S9030000FC
