:100000000C942A000C9434000C9434000C943400AA
:100010000C9434000C9434000C9434000C94340090
:100020000C9434000C9434000C9434000C94340080
:100030000C9434000C9434000C9434000C94340070
:100040000C9434000C9434000C9434000C94340060
:100050000C94340011241FBECFE5D8E0DEBFCDBF25
:100060000E944C000C94C3000C94000081B38E7F5E
:1000700081BB81B38D7F81BB81B38B7F81BB81B31A
:10008000806181BB81B3806281BB81B3806481BBAD
:1000900081B3806881BB08950E94360080E090E0C3
:1000A000DC01809B6AC081309105A105B10579F41E
:1000B00022B3206222BB2FE332E44FE021503040D4
:1000C0004040E1F700C000008099FECFEACF8230C7
:1000D0009105A105B10579F422B3206422BB2FE379
:1000E00032E44FE0215030404040E1F700C00000D2
:1000F0008099FECFD6CF83309105A105B10579F463
:1001000022B3206822BB2FE332E44FE0215030407D
:100110004040E1F700C000008099FECFC2CF84309C
:100120009105A105B10579F422B3206122BB2FE32B
:1001300032E44FE0215030404040E1F700C0000081
:100140008099FECFAECF85309105A105B10579F438
:1001500022B32F7E22BB22B32F7722BB22B32F7B69
:1001600022BB22B32F7D22BB8099FECF9ACF8099EC
:10017000FECF80E090E0DC0194CF0196A11DB11D7F
:0A018000809BFECF8ECFF894FFCFD6
:00000001FF
