:100000000C942A000C9434000C9434000C943400AA
:100010000C9434000C9434000C9434000C94340090
:100020000C9434000C9434000C9434000C94340080
:100030000C9434000C9434000C9434000C94340070
:100040000C9434000C9434000C9434000C94340060
:100050000C94340011241FBECFE5D8E0DEBFCDBF25
:100060000E944B000C9460000C94000087B3806BDE
:1000700087BB87B38F7B87BB8DB180648DB98DB112
:1000800080618DB98DB181608DB908958FB9779BED
:10009000FECF8FB108958FEF8ABB0E94360080E0BB
:1000A0002FE33DE093E0215030409040E1F700C065
:1000B0000000C1E0C80F0E9446008BBB8C2FF0CF20
:0400C000F894FFCFE2
:00000001FF
