:100000000C942A000C943F000C943F000C943F0089
:100010000C943F000C943F000C943F000C943F0064
:100020000C943F000C943F000C943F000C943F0054
:100030000C943F000C943F000C943F000C943F0044
:100040000C943F000C943F000C943F000C943F0034
:100050000C943F0011241FBECFE5D8E0DEBFCDBF1A
:1000600010E0A0E6B0E0EEEFF3E002C005900D92E4
:10007000A038B107D9F70E94EC010C94FD010C9453
:10008000000081B3806181BB81B3806281BB81B399
:10009000806481BB81B3806881BB81B38E7F81BB6B
:1000A00081B38D7F81BB81B38B7F81BB81B3877F20
:1000B00081BB8FEF82BB0895CF92DF92EF92FF92C8
:1000C000C12CD12C7601DFC042B3E0E7F0E081E043
:1000D00090E09C01008002C0220F331F0A94E2F7D7
:1000E000242B22BB42B39C01048002C0220F331F89
:1000F0000A94E2F7242B22BB42B39C01008402C085
:10010000220F331F0A94E2F7242B22BB42B39C0137
:10011000048402C0220F331F0A94E2F7242B22BB6F
:1001200022B3F601EE0FFF1FEE0FFF1FE059FF4F46
:10013000008002C0880F991F0A94E2F780958223FD
:1001400082BB40E050E0BA0193C080B3FA01EE0FE9
:10015000FF1FEE0FFF1FE05AFF4F3081232F90E06B
:1001600002C0959587953A95E2F780FD7DC080B3F2
:1001700090E0022E02C0959587950A94E2F780FFE1
:10018000F6CF81E0C816D104E104F10441F170F02A
:1001900082E0C816D104E104F104C9F183E0C81675
:1001A000D104E104F10409F44AC05EC041155105CF
:1001B0006105710509F470C0413051056105710593
:1001C00009F46CC0423051056105710509F468C03D
:1001D000433051056105710509F046C063C0411502
:1001E00051056105710509F45FC041305105610594
:1001F000710509F45BC0423051056105710509F4D0
:1002000057C0433051056105710571F553C0411563
:1002100051056105710509F44FC041305105610573
:10022000710509F44BC0423051056105710509F4AF
:1002300047C04330510561057105B1F443C0411514
:1002400051056105710509F43FC041305105610553
:100250007105E1F14230510561057105C9F1433085
:10026000510561057105B1F14F5F5F4F6F4F7F4FD2
:10027000443051056105710508F467CF8FEFC81A46
:10028000D80AE80AF80A84E0C816D104E104F104A7
:1002900008F41ACF8EE41FC087E31DC084E31BC09F
:1002A00081E319C083E417C088E315C085E313C058
:1002B00082E311C080E30FC089E30DC086E30BC069
:1002C00083E309C08DE307C08FE205C08AE203C063
:1002D0008DE201C08BE2FF90EF90DF90CF90089508
:1002E00088B38E7F88BB83ED90E30197F1F700C060
:1002F000000088B3816088BB08958AB31ABA88B3B6
:10030000826088BB88B38B7F88BB0E9470018FEFAF
:100310008ABB88B38D7F88BB0895CF93C82F0E9476
:100320007D01CBBB88B38D7F88BB88B38B7F88BBB7
:1003300089EF90E00197F1F700C000000E94700182
:10034000CF910895CF93C82F0E947D01CBBB88B376
:100350008D7F88BB88B3846088BB89EF90E001976C
:10036000F1F700C000000E947001CF91089581E074
:100370000E948D01089587E893E10197F1F700C08D
:1003800000000E947D0187B3816087BB87B38260D4
:1003900087BB87B3846087BB88B38E7F88BB88B3F5
:1003A0008B7F88BB88B38D7F88BB8FEF8ABB85EA44
:1003B0009EE00197F1F700C000000E94B70188E3BA
:1003C0000E948D0186E00E948D0180E80E948D01CF
:1003D0008FE00E948D0108950E94BB010E944100A0
:1003E0000E945C00833419F08E34D1F303C00E9464
:0E03F000B701F6CF0E94A201F3CFF894FFCF21
:1003FE0000000000010000000200000003000000E9
:10040E0004000000050000000600000007000000C8
:00000001FF
